{
    "_format": "hh-sol-artifact-1",
    "contractName": "Factory",
    "sourceName": "contracts/Factory.sol",
    "abi": [
        {
            "anonymous": false,
            "inputs": [
                {
                    "indexed": false,
                    "internalType": "uint8",
                    "name": "version",
                    "type": "uint8"
                }
            ],
            "name": "Initialized",
            "type": "event"
        },
        {
            "anonymous": false,
            "inputs": [
                {
                    "indexed": false,
                    "internalType": "address",
                    "name": "Issuer",
                    "type": "address"
                },
                {
                    "indexed": false,
                    "internalType": "address",
                    "name": "to",
                    "type": "address"
                },
                {
                    "indexed": false,
                    "internalType": "uint256",
                    "name": "tokenId",
                    "type": "uint256"
                },
                {
                    "indexed": false,
                    "internalType": "string",
                    "name": "tokenURI",
                    "type": "string"
                }
            ],
            "name": "IssuedCertificate",
            "type": "event"
        },
        {
            "anonymous": false,
            "inputs": [
                {
                    "indexed": false,
                    "internalType": "address",
                    "name": "owner",
                    "type": "address"
                },
                {
                    "indexed": false,
                    "internalType": "address",
                    "name": "contractAddress",
                    "type": "address"
                }
            ],
            "name": "contractCreated",
            "type": "event"
        },
        {
            "anonymous": false,
            "inputs": [
                {
                    "indexed": false,
                    "internalType": "address",
                    "name": "updater",
                    "type": "address"
                },
                {
                    "indexed": false,
                    "internalType": "uint256",
                    "name": "tokenId",
                    "type": "uint256"
                },
                {
                    "indexed": false,
                    "internalType": "string",
                    "name": "tokenURI",
                    "type": "string"
                }
            ],
            "name": "updatedTokenURI",
            "type": "event"
        },
        {
            "inputs": [
                {
                    "internalType": "address",
                    "name": "",
                    "type": "address"
                },
                {
                    "internalType": "address",
                    "name": "",
                    "type": "address"
                }
            ],
            "name": "_contractOwner",
            "outputs": [
                {
                    "internalType": "bool",
                    "name": "",
                    "type": "bool"
                }
            ],
            "stateMutability": "view",
            "type": "function"
        },
        {
            "inputs": [
                {
                    "internalType": "address",
                    "name": "",
                    "type": "address"
                },
                {
                    "internalType": "address",
                    "name": "",
                    "type": "address"
                }
            ],
            "name": "_hasAccessForContract",
            "outputs": [
                {
                    "internalType": "bool",
                    "name": "",
                    "type": "bool"
                }
            ],
            "stateMutability": "view",
            "type": "function"
        },
        {
            "inputs": [
                {
                    "internalType": "address",
                    "name": "",
                    "type": "address"
                },
                {
                    "internalType": "address",
                    "name": "",
                    "type": "address"
                }
            ],
            "name": "_hasAccessForCreate",
            "outputs": [
                {
                    "internalType": "bool",
                    "name": "",
                    "type": "bool"
                }
            ],
            "stateMutability": "view",
            "type": "function"
        },
        {
            "inputs": [
                {
                    "internalType": "address",
                    "name": "contractAddress",
                    "type": "address"
                },
                {
                    "internalType": "uint256",
                    "name": "tokenId",
                    "type": "uint256"
                }
            ],
            "name": "burn",
            "outputs": [],
            "stateMutability": "nonpayable",
            "type": "function"
        },
        {
            "inputs": [
                {
                    "internalType": "address",
                    "name": "contractAddress",
                    "type": "address"
                },
                {
                    "internalType": "bytes",
                    "name": "data",
                    "type": "bytes"
                }
            ],
            "name": "call",
            "outputs": [],
            "stateMutability": "nonpayable",
            "type": "function"
        },
        {
            "inputs": [
                {
                    "internalType": "address",
                    "name": "_implementaion",
                    "type": "address"
                }
            ],
            "name": "changeImplementaion",
            "outputs": [],
            "stateMutability": "nonpayable",
            "type": "function"
        },
        {
            "inputs": [
                {
                    "internalType": "uint256",
                    "name": "",
                    "type": "uint256"
                }
            ],
            "name": "clonedContracts",
            "outputs": [
                {
                    "internalType": "address",
                    "name": "",
                    "type": "address"
                }
            ],
            "stateMutability": "view",
            "type": "function"
        },
        {
            "inputs": [
                {
                    "internalType": "string",
                    "name": "name",
                    "type": "string"
                },
                {
                    "internalType": "string",
                    "name": "symbol",
                    "type": "string"
                },
                {
                    "internalType": "address",
                    "name": "_owner",
                    "type": "address"
                },
                {
                    "internalType": "string",
                    "name": "_contractURI",
                    "type": "string"
                }
            ],
            "name": "createCertificateContract",
            "outputs": [
                {
                    "internalType": "address",
                    "name": "",
                    "type": "address"
                }
            ],
            "stateMutability": "nonpayable",
            "type": "function"
        },
        {
            "inputs": [
                {
                    "internalType": "uint256",
                    "name": "i",
                    "type": "uint256"
                }
            ],
            "name": "getAddress",
            "outputs": [
                {
                    "internalType": "address",
                    "name": "",
                    "type": "address"
                }
            ],
            "stateMutability": "view",
            "type": "function"
        },
        {
            "inputs": [
                {
                    "internalType": "address",
                    "name": "contractAddress",
                    "type": "address"
                },
                {
                    "internalType": "address",
                    "name": "user",
                    "type": "address"
                }
            ],
            "name": "grantAccessForContract",
            "outputs": [],
            "stateMutability": "nonpayable",
            "type": "function"
        },
        {
            "inputs": [
                {
                    "internalType": "address",
                    "name": "contractAddress",
                    "type": "address"
                },
                {
                    "internalType": "address",
                    "name": "user",
                    "type": "address"
                }
            ],
            "name": "grantAccessForCreate",
            "outputs": [],
            "stateMutability": "nonpayable",
            "type": "function"
        },
        {
            "inputs": [],
            "name": "implementation",
            "outputs": [
                {
                    "internalType": "address",
                    "name": "",
                    "type": "address"
                }
            ],
            "stateMutability": "view",
            "type": "function"
        },
        {
            "inputs": [
                {
                    "internalType": "address",
                    "name": "_implementationAddress",
                    "type": "address"
                }
            ],
            "name": "initialize",
            "outputs": [],
            "stateMutability": "nonpayable",
            "type": "function"
        },
        {
            "inputs": [
                {
                    "internalType": "address",
                    "name": "contractAddress",
                    "type": "address"
                },
                {
                    "internalType": "address",
                    "name": "participant",
                    "type": "address"
                },
                {
                    "internalType": "uint256",
                    "name": "tokenId",
                    "type": "uint256"
                },
                {
                    "internalType": "string",
                    "name": "tokenURI",
                    "type": "string"
                }
            ],
            "name": "issueCertificate",
            "outputs": [],
            "stateMutability": "nonpayable",
            "type": "function"
        },
        {
            "inputs": [
                {
                    "internalType": "address",
                    "name": "contractAddress",
                    "type": "address"
                },
                {
                    "internalType": "address",
                    "name": "user",
                    "type": "address"
                }
            ],
            "name": "removeAccessForContract",
            "outputs": [],
            "stateMutability": "nonpayable",
            "type": "function"
        },
        {
            "inputs": [
                {
                    "internalType": "address",
                    "name": "contractAddress",
                    "type": "address"
                },
                {
                    "internalType": "address",
                    "name": "user",
                    "type": "address"
                }
            ],
            "name": "removeAccessForCreate",
            "outputs": [],
            "stateMutability": "nonpayable",
            "type": "function"
        },
        {
            "inputs": [
                {
                    "internalType": "address",
                    "name": "contractAddress",
                    "type": "address"
                },
                {
                    "internalType": "string",
                    "name": "_uri",
                    "type": "string"
                }
            ],
            "name": "updateContractURI",
            "outputs": [],
            "stateMutability": "nonpayable",
            "type": "function"
        },
        {
            "inputs": [
                {
                    "internalType": "address",
                    "name": "contractAddress",
                    "type": "address"
                },
                {
                    "internalType": "uint256",
                    "name": "tokenId",
                    "type": "uint256"
                },
                {
                    "internalType": "string",
                    "name": "tokenURI",
                    "type": "string"
                }
            ],
            "name": "updateTokenURI",
            "outputs": [],
            "stateMutability": "nonpayable",
            "type": "function"
        }
    ],
    "bytecode": "0x608060405234801561001057600080fd5b5061293b806100206000396000f3fe608060405234801561001057600080fd5b50600436106101165760003560e01c80636697392e116100a25780639dc29fac116100715780639dc29fac146102c5578063b2ace72c146102e1578063b93f9b0a14610311578063c4d66de814610341578063fb82480f1461035d57610116565b80636697392e1461022d5780636ebb788f146102495780636ff9032d146102655780638f956f351461029557610116565b80632bf78215116100e95780632bf782151461018b5780632d3f44fb146101bb5780633d16a77a146101d75780635c60da1b146101f35780635e4e0f731461021157610116565b80630fcd7f8f1461011b578063119dd48c146101375780631b8b921d146101535780631bd173441461016f575b600080fd5b61013560048036038101906101309190611d39565b61038d565b005b610151600480360381019061014c9190611da8565b610507565b005b61016d60048036038101906101689190611e89565b6106fa565b005b61018960048036038101906101849190611da8565b610879565b005b6101a560048036038101906101a09190611da8565b610a6b565b6040516101b29190611f00565b60405180910390f35b6101d560048036038101906101d09190611da8565b610a9a565b005b6101f160048036038101906101ec9190611f1b565b610cca565b005b6101fb610e5b565b6040516102089190611fad565b60405180910390f35b61022b60048036038101906102269190611fc8565b610e81565b005b61024760048036038101906102429190611ff5565b610fe5565b005b610263600480360381019061025e9190611da8565b611121565b005b61027f600480360381019061027a9190611da8565b611350565b60405161028c9190611f00565b60405180910390f35b6102af60048036038101906102aa9190612051565b61137f565b6040516102bc9190611fad565b60405180910390f35b6102df60048036038101906102da919061210c565b6116f3565b005b6102fb60048036038101906102f69190611da8565b61182f565b6040516103089190611f00565b60405180910390f35b61032b6004803603810190610326919061214c565b61185e565b6040516103389190611fad565b60405180910390f35b61035b60048036038101906103569190611fc8565b6118a6565b005b6103776004803603810190610372919061214c565b611a5f565b6040516103849190611fad565b60405180910390f35b8233600360008373ffffffffffffffffffffffffffffffffffffffff1673ffffffffffffffffffffffffffffffffffffffff16815260200190815260200160002060008273ffffffffffffffffffffffffffffffffffffffff1673ffffffffffffffffffffffffffffffffffffffff16815260200190815260200160002060009054906101000a900460ff16610458576040517f08c379a000000000000000000000000000000000000000000000000000000000815260040161044f906121fc565b60405180910390fd5b8473ffffffffffffffffffffffffffffffffffffffff166318e97fd185856040518363ffffffff1660e01b8152600401610493929190612299565b600060405180830381600087803b1580156104ad57600080fd5b505af11580156104c1573d6000803e3d6000fd5b505050507f0129b7f8250a1dc26e6d19ebd032d978f9550d40557e07f8cb31e1e007a4f8283385856040516104f8939291906122c9565b60405180910390a15050505050565b3373ffffffffffffffffffffffffffffffffffffffff16600260009054906101000a900473ffffffffffffffffffffffffffffffffffffffff1673ffffffffffffffffffffffffffffffffffffffff1614610597576040517f08c379a000000000000000000000000000000000000000000000000000000000815260040161058e90612353565b60405180910390fd5b600360008373ffffffffffffffffffffffffffffffffffffffff1673ffffffffffffffffffffffffffffffffffffffff16815260200190815260200160002060008273ffffffffffffffffffffffffffffffffffffffff1673ffffffffffffffffffffffffffffffffffffffff16815260200190815260200160002060009054906101000a900460ff1615610661576040517f08c379a0000000000000000000000000000000000000000000000000000000008152600401610658906123bf565b60405180910390fd5b6001600360008473ffffffffffffffffffffffffffffffffffffffff1673ffffffffffffffffffffffffffffffffffffffff16815260200190815260200160002060008373ffffffffffffffffffffffffffffffffffffffff1673ffffffffffffffffffffffffffffffffffffffff16815260200190815260200160002060006101000a81548160ff0219169083151502179055505050565b8133600460008373ffffffffffffffffffffffffffffffffffffffff1673ffffffffffffffffffffffffffffffffffffffff16815260200190815260200160002060008273ffffffffffffffffffffffffffffffffffffffff1673ffffffffffffffffffffffffffffffffffffffff16815260200190815260200160002060009054906101000a900460ff166107c5576040517f08c379a00000000000000000000000000000000000000000000000000000000081526004016107bc90612353565b60405180910390fd5b60008473ffffffffffffffffffffffffffffffffffffffff16846040516107ec9190612426565b6000604051808303816000865af19150503d8060008114610829576040519150601f19603f3d011682016040523d82523d6000602084013e61082e565b606091505b5050905080610872576040517f08c379a000000000000000000000000000000000000000000000000000000000815260040161086990612489565b60405180910390fd5b5050505050565b3373ffffffffffffffffffffffffffffffffffffffff16600260009054906101000a900473ffffffffffffffffffffffffffffffffffffffff1673ffffffffffffffffffffffffffffffffffffffff1614610909576040517f08c379a000000000000000000000000000000000000000000000000000000000815260040161090090612353565b60405180910390fd5b600360008373ffffffffffffffffffffffffffffffffffffffff1673ffffffffffffffffffffffffffffffffffffffff16815260200190815260200160002060008273ffffffffffffffffffffffffffffffffffffffff1673ffffffffffffffffffffffffffffffffffffffff16815260200190815260200160002060009054906101000a900460ff166109d2576040517f08c379a00000000000000000000000000000000000000000000000000000000081526004016109c9906124f5565b60405180910390fd5b6000600360008473ffffffffffffffffffffffffffffffffffffffff1673ffffffffffffffffffffffffffffffffffffffff16815260200190815260200160002060008373ffffffffffffffffffffffffffffffffffffffff1673ffffffffffffffffffffffffffffffffffffffff16815260200190815260200160002060006101000a81548160ff0219169083151502179055505050565b60056020528160005260406000206020528060005260406000206000915091509054906101000a900460ff1681565b8133600460008373ffffffffffffffffffffffffffffffffffffffff1673ffffffffffffffffffffffffffffffffffffffff16815260200190815260200160002060008273ffffffffffffffffffffffffffffffffffffffff1673ffffffffffffffffffffffffffffffffffffffff16815260200190815260200160002060009054906101000a900460ff16610b65576040517f08c379a0000000000000000000000000000000000000000000000000000000008152600401610b5c90612353565b60405180910390fd5b600360008573ffffffffffffffffffffffffffffffffffffffff1673ffffffffffffffffffffffffffffffffffffffff16815260200190815260200160002060008473ffffffffffffffffffffffffffffffffffffffff1673ffffffffffffffffffffffffffffffffffffffff16815260200190815260200160002060009054906101000a900460ff1615610c2f576040517f08c379a0000000000000000000000000000000000000000000000000000000008152600401610c2690612561565b60405180910390fd5b6001600360008673ffffffffffffffffffffffffffffffffffffffff1673ffffffffffffffffffffffffffffffffffffffff16815260200190815260200160002060008573ffffffffffffffffffffffffffffffffffffffff1673ffffffffffffffffffffffffffffffffffffffff16815260200190815260200160002060006101000a81548160ff02191690831515021790555050505050565b8333600360008373ffffffffffffffffffffffffffffffffffffffff1673ffffffffffffffffffffffffffffffffffffffff16815260200190815260200160002060008273ffffffffffffffffffffffffffffffffffffffff1673ffffffffffffffffffffffffffffffffffffffff16815260200190815260200160002060009054906101000a900460ff16610d95576040517f08c379a0000000000000000000000000000000000000000000000000000000008152600401610d8c906121fc565b60405180910390fd5b8573ffffffffffffffffffffffffffffffffffffffff16630ce51f568686866040518463ffffffff1660e01b8152600401610dd2939291906122c9565b6020604051808303816000875af1158015610df1573d6000803e3d6000fd5b505050506040513d601f19601f82011682018060405250810190610e159190612596565b507ff8f93f7b8548e7aad8dec69a7f3a55d97c38a8604775114150310cec66099c2833868686604051610e4b94939291906125c3565b60405180910390a1505050505050565b600060029054906101000a900473ffffffffffffffffffffffffffffffffffffffff1681565b3373ffffffffffffffffffffffffffffffffffffffff16600260009054906101000a900473ffffffffffffffffffffffffffffffffffffffff1673ffffffffffffffffffffffffffffffffffffffff1614610f11576040517f08c379a0000000000000000000000000000000000000000000000000000000008152600401610f0890612353565b60405180910390fd5b3373ffffffffffffffffffffffffffffffffffffffff16600260009054906101000a900473ffffffffffffffffffffffffffffffffffffffff1673ffffffffffffffffffffffffffffffffffffffff1614610fa1576040517f08c379a0000000000000000000000000000000000000000000000000000000008152600401610f989061265b565b60405180910390fd5b80600060026101000a81548173ffffffffffffffffffffffffffffffffffffffff021916908373ffffffffffffffffffffffffffffffffffffffff16021790555050565b8133600460008373ffffffffffffffffffffffffffffffffffffffff1673ffffffffffffffffffffffffffffffffffffffff16815260200190815260200160002060008273ffffffffffffffffffffffffffffffffffffffff1673ffffffffffffffffffffffffffffffffffffffff16815260200190815260200160002060009054906101000a900460ff166110b0576040517f08c379a00000000000000000000000000000000000000000000000000000000081526004016110a790612353565b60405180910390fd5b8373ffffffffffffffffffffffffffffffffffffffff1663938e3d7b846040518263ffffffff1660e01b81526004016110e9919061267b565b600060405180830381600087803b15801561110357600080fd5b505af1158015611117573d6000803e3d6000fd5b5050505050505050565b8133600460008373ffffffffffffffffffffffffffffffffffffffff1673ffffffffffffffffffffffffffffffffffffffff16815260200190815260200160002060008273ffffffffffffffffffffffffffffffffffffffff1673ffffffffffffffffffffffffffffffffffffffff16815260200190815260200160002060009054906101000a900460ff166111ec576040517f08c379a00000000000000000000000000000000000000000000000000000000081526004016111e390612353565b60405180910390fd5b600560008573ffffffffffffffffffffffffffffffffffffffff1673ffffffffffffffffffffffffffffffffffffffff16815260200190815260200160002060008473ffffffffffffffffffffffffffffffffffffffff1673ffffffffffffffffffffffffffffffffffffffff16815260200190815260200160002060009054906101000a900460ff166112b5576040517f08c379a00000000000000000000000000000000000000000000000000000000081526004016112ac906124f5565b60405180910390fd5b6000600560008673ffffffffffffffffffffffffffffffffffffffff1673ffffffffffffffffffffffffffffffffffffffff16815260200190815260200160002060008573ffffffffffffffffffffffffffffffffffffffff1673ffffffffffffffffffffffffffffffffffffffff16815260200190815260200160002060006101000a81548160ff02191690831515021790555050505050565b60046020528160005260406000206020528060005260406000206000915091509054906101000a900460ff1681565b60003373ffffffffffffffffffffffffffffffffffffffff16600260009054906101000a900473ffffffffffffffffffffffffffffffffffffffff1673ffffffffffffffffffffffffffffffffffffffff1614611411576040517f08c379a000000000000000000000000000000000000000000000000000000000815260040161140890612353565b60405180910390fd5b600061141b611a9e565b90508073ffffffffffffffffffffffffffffffffffffffff16632ae2248a87877f5af43d82803e903d91602b57fd5bf300000000000000000000000000000000006040518463ffffffff1660e01b815260040161147a9392919061273b565b600060405180830381600087803b15801561149457600080fd5b505af11580156114a8573d6000803e3d6000fd5b505050508073ffffffffffffffffffffffffffffffffffffffff1663c2e3273d856040518263ffffffff1660e01b81526004016114e59190611fad565b600060405180830381600087803b1580156114ff57600080fd5b505af1158015611513573d6000803e3d6000fd5b505050506001600460008373ffffffffffffffffffffffffffffffffffffffff1673ffffffffffffffffffffffffffffffffffffffff16815260200190815260200160002060008673ffffffffffffffffffffffffffffffffffffffff1673ffffffffffffffffffffffffffffffffffffffff16815260200190815260200160002060006101000a81548160ff0219169083151502179055506001600360008373ffffffffffffffffffffffffffffffffffffffff1673ffffffffffffffffffffffffffffffffffffffff16815260200190815260200160002060008673ffffffffffffffffffffffffffffffffffffffff1673ffffffffffffffffffffffffffffffffffffffff16815260200190815260200160002060006101000a81548160ff0219169083151502179055506001819080600181540180825580915050600190039060005260206000200160009091909190916101000a81548173ffffffffffffffffffffffffffffffffffffffff021916908373ffffffffffffffffffffffffffffffffffffffff1602179055506116ae8184610fe5565b7f5f885803092da006d02d68995b734d3497c6ab7bfbf926e1c3de55e10b82d47884826040516116df929190612793565b60405180910390a180915050949350505050565b8133600460008373ffffffffffffffffffffffffffffffffffffffff1673ffffffffffffffffffffffffffffffffffffffff16815260200190815260200160002060008273ffffffffffffffffffffffffffffffffffffffff1673ffffffffffffffffffffffffffffffffffffffff16815260200190815260200160002060009054906101000a900460ff166117be576040517f08c379a00000000000000000000000000000000000000000000000000000000081526004016117b590612353565b60405180910390fd5b8373ffffffffffffffffffffffffffffffffffffffff166342966c68846040518263ffffffff1660e01b81526004016117f791906127bc565b600060405180830381600087803b15801561181157600080fd5b505af1158015611825573d6000803e3d6000fd5b5050505050505050565b60036020528160005260406000206020528060005260406000206000915091509054906101000a900460ff1681565b600060018281548110611874576118736127d7565b5b9060005260206000200160009054906101000a900473ffffffffffffffffffffffffffffffffffffffff169050919050565b60008060019054906101000a900460ff161590508080156118d75750600160008054906101000a900460ff1660ff16105b8061190457506118e630611b28565b1580156119035750600160008054906101000a900460ff1660ff16145b5b611943576040517f08c379a000000000000000000000000000000000000000000000000000000000815260040161193a90612878565b60405180910390fd5b60016000806101000a81548160ff021916908360ff1602179055508015611980576001600060016101000a81548160ff0219169083151502179055505b81600060026101000a81548173ffffffffffffffffffffffffffffffffffffffff021916908373ffffffffffffffffffffffffffffffffffffffff16021790555033600260006101000a81548173ffffffffffffffffffffffffffffffffffffffff021916908373ffffffffffffffffffffffffffffffffffffffff1602179055508015611a5b5760008060016101000a81548160ff0219169083151502179055507f7f26b83ff96e1f2b6a682f133852f6798a09c465da95921460cefb38474024986001604051611a5291906128ea565b60405180910390a15b5050565b60018181548110611a6f57600080fd5b906000526020600020016000915054906101000a900473ffffffffffffffffffffffffffffffffffffffff1681565b600080600060029054906101000a900473ffffffffffffffffffffffffffffffffffffffff1660601b90506040517f3d602d80600a3d3981f3363d3d373d3d3d363d7300000000000000000000000081528160148201527f5af43d82803e903d91602b57fd5bf3000000000000000000000000000000000060288201526037816000f09250505090565b6000808273ffffffffffffffffffffffffffffffffffffffff163b119050919050565b6000604051905090565b600080fd5b600080fd5b600073ffffffffffffffffffffffffffffffffffffffff82169050919050565b6000611b8a82611b5f565b9050919050565b611b9a81611b7f565b8114611ba557600080fd5b50565b600081359050611bb781611b91565b92915050565b6000819050919050565b611bd081611bbd565b8114611bdb57600080fd5b50565b600081359050611bed81611bc7565b92915050565b600080fd5b600080fd5b6000601f19601f8301169050919050565b7f4e487b7100000000000000000000000000000000000000000000000000000000600052604160045260246000fd5b611c4682611bfd565b810181811067ffffffffffffffff82111715611c6557611c64611c0e565b5b80604052505050565b6000611c78611b4b565b9050611c848282611c3d565b919050565b600067ffffffffffffffff821115611ca457611ca3611c0e565b5b611cad82611bfd565b9050602081019050919050565b82818337600083830152505050565b6000611cdc611cd784611c89565b611c6e565b905082815260208101848484011115611cf857611cf7611bf8565b5b611d03848285611cba565b509392505050565b600082601f830112611d2057611d1f611bf3565b5b8135611d30848260208601611cc9565b91505092915050565b600080600060608486031215611d5257611d51611b55565b5b6000611d6086828701611ba8565b9350506020611d7186828701611bde565b925050604084013567ffffffffffffffff811115611d9257611d91611b5a565b5b611d9e86828701611d0b565b9150509250925092565b60008060408385031215611dbf57611dbe611b55565b5b6000611dcd85828601611ba8565b9250506020611dde85828601611ba8565b9150509250929050565b600067ffffffffffffffff821115611e0357611e02611c0e565b5b611e0c82611bfd565b9050602081019050919050565b6000611e2c611e2784611de8565b611c6e565b905082815260208101848484011115611e4857611e47611bf8565b5b611e53848285611cba565b509392505050565b600082601f830112611e7057611e6f611bf3565b5b8135611e80848260208601611e19565b91505092915050565b60008060408385031215611ea057611e9f611b55565b5b6000611eae85828601611ba8565b925050602083013567ffffffffffffffff811115611ecf57611ece611b5a565b5b611edb85828601611e5b565b9150509250929050565b60008115159050919050565b611efa81611ee5565b82525050565b6000602082019050611f156000830184611ef1565b92915050565b60008060008060808587031215611f3557611f34611b55565b5b6000611f4387828801611ba8565b9450506020611f5487828801611ba8565b9350506040611f6587828801611bde565b925050606085013567ffffffffffffffff811115611f8657611f85611b5a565b5b611f9287828801611d0b565b91505092959194509250565b611fa781611b7f565b82525050565b6000602082019050611fc26000830184611f9e565b92915050565b600060208284031215611fde57611fdd611b55565b5b6000611fec84828501611ba8565b91505092915050565b6000806040838503121561200c5761200b611b55565b5b600061201a85828601611ba8565b925050602083013567ffffffffffffffff81111561203b5761203a611b5a565b5b61204785828601611d0b565b9150509250929050565b6000806000806080858703121561206b5761206a611b55565b5b600085013567ffffffffffffffff81111561208957612088611b5a565b5b61209587828801611d0b565b945050602085013567ffffffffffffffff8111156120b6576120b5611b5a565b5b6120c287828801611d0b565b93505060406120d387828801611ba8565b925050606085013567ffffffffffffffff8111156120f4576120f3611b5a565b5b61210087828801611d0b565b91505092959194509250565b6000806040838503121561212357612122611b55565b5b600061213185828601611ba8565b925050602061214285828601611bde565b9150509250929050565b60006020828403121561216257612161611b55565b5b600061217084828501611bde565b91505092915050565b600082825260208201905092915050565b7f446f73656e277420686176652041636365737320666f72207468697320636f6e60008201527f7472616374000000000000000000000000000000000000000000000000000000602082015250565b60006121e6602583612179565b91506121f18261218a565b604082019050919050565b60006020820190508181036000830152612215816121d9565b9050919050565b61222581611bbd565b82525050565b600081519050919050565b60005b83811015612254578082015181840152602081019050612239565b60008484015250505050565b600061226b8261222b565b6122758185612179565b9350612285818560208601612236565b61228e81611bfd565b840191505092915050565b60006040820190506122ae600083018561221c565b81810360208301526122c08184612260565b90509392505050565b60006060820190506122de6000830186611f9e565b6122eb602083018561221c565b81810360408301526122fd8184612260565b9050949350505050565b7f43616c6c6572206973206e6f74206f776e657200000000000000000000000000600082015250565b600061233d601383612179565b915061234882612307565b602082019050919050565b6000602082019050818103600083015261236c81612330565b9050919050565b7f416c6c7265616479206578697374000000000000000000000000000000000000600082015250565b60006123a9600e83612179565b91506123b482612373565b602082019050919050565b600060208201905081810360008301526123d88161239c565b9050919050565b600081519050919050565b600081905092915050565b6000612400826123df565b61240a81856123ea565b935061241a818560208601612236565b80840191505092915050565b600061243282846123f5565b915081905092915050565b7f4661696c656420746f2072756e00000000000000000000000000000000000000600082015250565b6000612473600d83612179565b915061247e8261243d565b602082019050919050565b600060208201905081810360008301526124a281612466565b9050919050565b7f446f73656e277420657869737400000000000000000000000000000000000000600082015250565b60006124df600d83612179565b91506124ea826124a9565b602082019050919050565b6000602082019050818103600083015261250e816124d2565b9050919050565b7f416c6c7265616479206861732061636365737300000000000000000000000000600082015250565b600061254b601383612179565b915061255682612515565b602082019050919050565b6000602082019050818103600083015261257a8161253e565b9050919050565b60008151905061259081611bc7565b92915050565b6000602082840312156125ac576125ab611b55565b5b60006125ba84828501612581565b91505092915050565b60006080820190506125d86000830187611f9e565b6125e56020830186611f9e565b6125f2604083018561221c565b81810360608301526126048184612260565b905095945050505050565b7f63616c6c6573206973206e6f74204f776e657200000000000000000000000000600082015250565b6000612645601383612179565b91506126508261260f565b602082019050919050565b6000602082019050818103600083015261267481612638565b9050919050565b600060208201905081810360008301526126958184612260565b905092915050565b7f697066733a2f2f00000000000000000000000000000000000000000000000000600082015250565b60006126d3600783612179565b91506126de8261269d565b602082019050919050565b6000819050919050565b6000819050919050565b60008160001b9050919050565b600061272561272061271b846126e9565b6126fd565b6126f3565b9050919050565b6127358161270a565b82525050565b600060808201905081810360008301526127558186612260565b905081810360208301526127698185612260565b9050818103604083015261277c816126c6565b905061278b606083018461272c565b949350505050565b60006040820190506127a86000830185611f9e565b6127b56020830184611f9e565b9392505050565b60006020820190506127d1600083018461221c565b92915050565b7f4e487b7100000000000000000000000000000000000000000000000000000000600052603260045260246000fd5b7f496e697469616c697a61626c653a20636f6e747261637420697320616c72656160008201527f647920696e697469616c697a6564000000000000000000000000000000000000602082015250565b6000612862602e83612179565b915061286d82612806565b604082019050919050565b6000602082019050818103600083015261289181612855565b9050919050565b6000819050919050565b600060ff82169050919050565b6000819050919050565b60006128d46128cf6128ca84612898565b6128af565b6128a2565b9050919050565b6128e4816128b9565b82525050565b60006020820190506128ff60008301846128db565b9291505056fea26469706673582212203b70d5440c6fb08916a3155b7259a0a779ab766e5cca13c0884b7aa003d0512164736f6c63430008110033",
    "linkReferences": {},
    "deployedLinkReferences": {}
}